{
  "contractName": "CrowdFunding",
  "abi": [
    {
      "anonymous": false,
      "inputs": [
        {
          "indexed": false,
          "internalType": "string",
          "name": "message",
          "type": "string"
        }
      ],
      "name": "LogMessage",
      "type": "event"
    },
    {
      "inputs": [
        {
          "internalType": "uint256",
          "name": "",
          "type": "uint256"
        }
      ],
      "name": "campaigns",
      "outputs": [
        {
          "internalType": "string",
          "name": "name",
          "type": "string"
        },
        {
          "internalType": "address",
          "name": "owner",
          "type": "address"
        },
        {
          "internalType": "string",
          "name": "title",
          "type": "string"
        },
        {
          "internalType": "string",
          "name": "description",
          "type": "string"
        },
        {
          "internalType": "uint256",
          "name": "target",
          "type": "uint256"
        },
        {
          "internalType": "uint256",
          "name": "startline",
          "type": "uint256"
        },
        {
          "internalType": "uint256",
          "name": "deadline",
          "type": "uint256"
        },
        {
          "internalType": "uint256",
          "name": "amountCollected",
          "type": "uint256"
        },
        {
          "internalType": "string",
          "name": "image",
          "type": "string"
        },
        {
          "internalType": "string",
          "name": "nft",
          "type": "string"
        }
      ],
      "stateMutability": "view",
      "type": "function",
      "constant": true
    },
    {
      "inputs": [],
      "name": "numberOfCampaigns",
      "outputs": [
        {
          "internalType": "uint256",
          "name": "",
          "type": "uint256"
        }
      ],
      "stateMutability": "view",
      "type": "function",
      "constant": true
    },
    {
      "inputs": [
        {
          "internalType": "string",
          "name": "message",
          "type": "string"
        }
      ],
      "name": "sendMessage",
      "outputs": [],
      "stateMutability": "nonpayable",
      "type": "function"
    },
    {
      "inputs": [
        {
          "internalType": "string",
          "name": "_name",
          "type": "string"
        },
        {
          "internalType": "address",
          "name": "_owner",
          "type": "address"
        },
        {
          "internalType": "string",
          "name": "_title",
          "type": "string"
        },
        {
          "internalType": "string",
          "name": "_description",
          "type": "string"
        },
        {
          "internalType": "uint256",
          "name": "_target",
          "type": "uint256"
        },
        {
          "internalType": "uint256",
          "name": "_startline",
          "type": "uint256"
        },
        {
          "internalType": "uint256",
          "name": "_deadline",
          "type": "uint256"
        },
        {
          "internalType": "string",
          "name": "_image",
          "type": "string"
        },
        {
          "internalType": "string",
          "name": "_nft",
          "type": "string"
        }
      ],
      "name": "createCampaign",
      "outputs": [
        {
          "internalType": "uint256",
          "name": "",
          "type": "uint256"
        }
      ],
      "stateMutability": "nonpayable",
      "type": "function"
    },
    {
      "inputs": [
        {
          "internalType": "uint256",
          "name": "_id",
          "type": "uint256"
        }
      ],
      "name": "donateToCampaign",
      "outputs": [],
      "stateMutability": "payable",
      "type": "function",
      "payable": true
    },
    {
      "inputs": [
        {
          "internalType": "address payable",
          "name": "_recipient",
          "type": "address"
        },
        {
          "internalType": "uint256",
          "name": "_id",
          "type": "uint256"
        }
      ],
      "name": "withDrawAmount",
      "outputs": [],
      "stateMutability": "payable",
      "type": "function",
      "payable": true
    },
    {
      "inputs": [
        {
          "internalType": "address",
          "name": "_contractAddress",
          "type": "address"
        }
      ],
      "name": "getBalance",
      "outputs": [
        {
          "internalType": "uint256",
          "name": "",
          "type": "uint256"
        }
      ],
      "stateMutability": "view",
      "type": "function",
      "constant": true
    },
    {
      "inputs": [
        {
          "internalType": "uint256",
          "name": "_id",
          "type": "uint256"
        }
      ],
      "name": "getDonators",
      "outputs": [
        {
          "internalType": "address[]",
          "name": "",
          "type": "address[]"
        },
        {
          "internalType": "uint256[]",
          "name": "",
          "type": "uint256[]"
        }
      ],
      "stateMutability": "view",
      "type": "function",
      "constant": true
    },
    {
      "inputs": [],
      "name": "getCampaigns",
      "outputs": [
        {
          "components": [
            {
              "internalType": "string",
              "name": "name",
              "type": "string"
            },
            {
              "internalType": "address",
              "name": "owner",
              "type": "address"
            },
            {
              "internalType": "string",
              "name": "title",
              "type": "string"
            },
            {
              "internalType": "string",
              "name": "description",
              "type": "string"
            },
            {
              "internalType": "uint256",
              "name": "target",
              "type": "uint256"
            },
            {
              "internalType": "uint256",
              "name": "startline",
              "type": "uint256"
            },
            {
              "internalType": "uint256",
              "name": "deadline",
              "type": "uint256"
            },
            {
              "internalType": "uint256",
              "name": "amountCollected",
              "type": "uint256"
            },
            {
              "internalType": "string",
              "name": "image",
              "type": "string"
            },
            {
              "internalType": "string",
              "name": "nft",
              "type": "string"
            },
            {
              "internalType": "address[]",
              "name": "donators",
              "type": "address[]"
            },
            {
              "internalType": "uint256[]",
              "name": "donations",
              "type": "uint256[]"
            },
            {
              "internalType": "uint256[]",
              "name": "withdrawls",
              "type": "uint256[]"
            }
          ],
          "internalType": "struct CrowdFunding.Campaign[]",
          "name": "",
          "type": "tuple[]"
        }
      ],
      "stateMutability": "view",
      "type": "function",
      "constant": true
    }
  ],
  "bytecode": "0x6080604052600060015534801561001557600080fd5b5061210d806100256000396000f3fe6080604052600436106100a3576000357c0100000000000000000000000000000000000000000000000000000000900480633f5dde13116100765780633f5dde131461019457806342a4fda8146101b0578063469c8110146101cc578063a6b03633146101f5578063f8b2cb4f14610220576100a3565b806307ca140d146100a85780630c990e56146100d35780630fa91fa914610110578063141961bc1461014e575b600080fd5b3480156100b457600080fd5b506100bd61025d565b6040516100ca9190611234565b60405180910390f35b3480156100df57600080fd5b506100fa60048036038101906100f59190611433565b610263565b6040516101079190611234565b60405180910390f35b34801561011c57600080fd5b5061013760048036038101906101329190611589565b6103dd565b604051610145929190611732565b60405180910390f35b34801561015a57600080fd5b5061017560048036038101906101709190611589565b6104ed565b60405161018b9a99989796959493929190611800565b60405180910390f35b6101ae60048036038101906101a991906118fd565b610809565b005b6101ca60048036038101906101c59190611589565b6109e3565b005b3480156101d857600080fd5b506101f360048036038101906101ee919061193d565b610b43565b005b34801561020157600080fd5b5061020a610b7d565b6040516102179190611cba565b60405180910390f35b34801561022c57600080fd5b5061024760048036038101906102429190611cdc565b6110d9565b6040516102549190611234565b60405180910390f35b60015481565b60008060008060015481526020019081526020016000209050428160060154106102c2576040517f08c379a00000000000000000000000000000000000000000000000000000000081526004016102b990611d7b565b60405180910390fd5b8a8160000190805190602001906102da9291906110fa565b50898160010160006101000a81548173ffffffffffffffffffffffffffffffffffffffff021916908373ffffffffffffffffffffffffffffffffffffffff160217905550888160020190805190602001906103369291906110fa565b508781600301908051906020019061034f9291906110fa565b50868160040181905550858160050181905550848160060181905550600081600701819055508381600801908051906020019061038d9291906110fa565b50828160090190805190602001906103a69291906110fa565b50600160008154809291906103ba90611dca565b9190505550600180546103cd9190611e12565b9150509998505050505050505050565b606080600080848152602001908152602001600020600a01600080858152602001908152602001600020600b018180548060200260200160405190810160405280929190818152602001828054801561048b57602002820191906000526020600020905b8160009054906101000a900473ffffffffffffffffffffffffffffffffffffffff1673ffffffffffffffffffffffffffffffffffffffff1681526020019060010190808311610441575b50505050509150808054806020026020016040519081016040528092919081815260200182805480156104dd57602002820191906000526020600020905b8154815260200190600101908083116104c9575b5050505050905091509150915091565b600060205280600052604060002060009150905080600001805461051090611e75565b80601f016020809104026020016040519081016040528092919081815260200182805461053c90611e75565b80156105895780601f1061055e57610100808354040283529160200191610589565b820191906000526020600020905b81548152906001019060200180831161056c57829003601f168201915b5050505050908060010160009054906101000a900473ffffffffffffffffffffffffffffffffffffffff16908060020180546105c490611e75565b80601f01602080910402602001604051908101604052809291908181526020018280546105f090611e75565b801561063d5780601f106106125761010080835404028352916020019161063d565b820191906000526020600020905b81548152906001019060200180831161062057829003601f168201915b50505050509080600301805461065290611e75565b80601f016020809104026020016040519081016040528092919081815260200182805461067e90611e75565b80156106cb5780601f106106a0576101008083540402835291602001916106cb565b820191906000526020600020905b8154815290600101906020018083116106ae57829003601f168201915b5050505050908060040154908060050154908060060154908060070154908060080180546106f890611e75565b80601f016020809104026020016040519081016040528092919081815260200182805461072490611e75565b80156107715780601f1061074657610100808354040283529160200191610771565b820191906000526020600020905b81548152906001019060200180831161075457829003601f168201915b50505050509080600901805461078690611e75565b80601f01602080910402602001604051908101604052809291908181526020018280546107b290611e75565b80156107ff5780601f106107d4576101008083540402835291602001916107ff565b820191906000526020600020905b8154815290600101906020018083116107e257829003601f168201915b505050505090508a565b6000349050600073ffffffffffffffffffffffffffffffffffffffff168373ffffffffffffffffffffffffffffffffffffffff160361087d576040517f08c379a000000000000000000000000000000000000000000000000000000000815260040161087490611ef2565b60405180910390fd5b803073ffffffffffffffffffffffffffffffffffffffff163110156108d7576040517f08c379a00000000000000000000000000000000000000000000000000000000081526004016108ce90611f5e565b60405180910390fd5b60008373ffffffffffffffffffffffffffffffffffffffff16826040516108fd90611faf565b60006040518083038185875af1925050503d806000811461093a576040519150601f19603f3d011682016040523d82523d6000602084013e61093f565b606091505b50509050600080600085815260200190815260200160002090508281600701546109699190611e12565b816007018190555080600c01839080600181540180825580915050600190039060005260206000200160009091909190915055816109dc576040517f08c379a00000000000000000000000000000000000000000000000000000000081526004016109d390612010565b60405180910390fd5b5050505050565b60003490506000806000848152602001908152602001600020905080600a01339080600181540180825580915050600190039060005260206000200160009091909190916101000a81548173ffffffffffffffffffffffffffffffffffffffff021916908373ffffffffffffffffffffffffffffffffffffffff16021790555080600b0182908060018154018082558091505060019003906000526020600020016000909190919091505560008160010160009054906101000a900473ffffffffffffffffffffffffffffffffffffffff1673ffffffffffffffffffffffffffffffffffffffff1683604051610ad890611faf565b60006040518083038185875af1925050503d8060008114610b15576040519150601f19603f3d011682016040523d82523d6000602084013e610b1a565b606091505b505090508015610b3d57828260070154610b349190612030565b82600701819055505b50505050565b7f96561394bac381230de4649200e8831afcab1f451881bbade9ef209f6dd3048081604051610b729190612086565b60405180910390a150565b6060600060015467ffffffffffffffff811115610b9d57610b9c61127e565b5b604051908082528060200260200182016040528015610bd657816020015b610bc3611180565b815260200190600190039081610bbb5790505b50905060005b6001548110156110d1576000806000838152602001908152602001600020905080604051806101a0016040529081600082018054610c1990611e75565b80601f0160208091040260200160405190810160405280929190818152602001828054610c4590611e75565b8015610c925780601f10610c6757610100808354040283529160200191610c92565b820191906000526020600020905b815481529060010190602001808311610c7557829003601f168201915b505050505081526020016001820160009054906101000a900473ffffffffffffffffffffffffffffffffffffffff1673ffffffffffffffffffffffffffffffffffffffff1673ffffffffffffffffffffffffffffffffffffffff168152602001600282018054610d0190611e75565b80601f0160208091040260200160405190810160405280929190818152602001828054610d2d90611e75565b8015610d7a5780601f10610d4f57610100808354040283529160200191610d7a565b820191906000526020600020905b815481529060010190602001808311610d5d57829003601f168201915b50505050508152602001600382018054610d9390611e75565b80601f0160208091040260200160405190810160405280929190818152602001828054610dbf90611e75565b8015610e0c5780601f10610de157610100808354040283529160200191610e0c565b820191906000526020600020905b815481529060010190602001808311610def57829003601f168201915b5050505050815260200160048201548152602001600582015481526020016006820154815260200160078201548152602001600882018054610e4d90611e75565b80601f0160208091040260200160405190810160405280929190818152602001828054610e7990611e75565b8015610ec65780601f10610e9b57610100808354040283529160200191610ec6565b820191906000526020600020905b815481529060010190602001808311610ea957829003601f168201915b50505050508152602001600982018054610edf90611e75565b80601f0160208091040260200160405190810160405280929190818152602001828054610f0b90611e75565b8015610f585780601f10610f2d57610100808354040283529160200191610f58565b820191906000526020600020905b815481529060010190602001808311610f3b57829003601f168201915b50505050508152602001600a8201805480602002602001604051908101604052809291908181526020018280548015610fe657602002820191906000526020600020905b8160009054906101000a900473ffffffffffffffffffffffffffffffffffffffff1673ffffffffffffffffffffffffffffffffffffffff1681526020019060010190808311610f9c575b50505050508152602001600b820180548060200260200160405190810160405280929190818152602001828054801561103e57602002820191906000526020600020905b81548152602001906001019080831161102a575b50505050508152602001600c820180548060200260200160405190810160405280929190818152602001828054801561109657602002820191906000526020600020905b815481526020019060010190808311611082575b5050505050815250508383815181106110b2576110b16120a8565b5b60200260200101819052505080806110c990611dca565b915050610bdc565b508091505090565b60008173ffffffffffffffffffffffffffffffffffffffff16319050919050565b82805461110690611e75565b90600052602060002090601f016020900481019282611128576000855561116f565b82601f1061114157805160ff191683800117855561116f565b8280016001018555821561116f579182015b8281111561116e578251825591602001919060010190611153565b5b50905061117c91906111fe565b5090565b604051806101a0016040528060608152602001600073ffffffffffffffffffffffffffffffffffffffff16815260200160608152602001606081526020016000815260200160008152602001600081526020016000815260200160608152602001606081526020016060815260200160608152602001606081525090565b5b808211156112175760008160009055506001016111ff565b5090565b6000819050919050565b61122e8161121b565b82525050565b60006020820190506112496000830184611225565b92915050565b6000604051905090565b600080fd5b600080fd5b600080fd5b600080fd5b6000601f19601f8301169050919050565b7f4e487b7100000000000000000000000000000000000000000000000000000000600052604160045260246000fd5b6112b68261126d565b810181811067ffffffffffffffff821117156112d5576112d461127e565b5b80604052505050565b60006112e861124f565b90506112f482826112ad565b919050565b600067ffffffffffffffff8211156113145761131361127e565b5b61131d8261126d565b9050602081019050919050565b82818337600083830152505050565b600061134c611347846112f9565b6112de565b90508281526020810184848401111561136857611367611268565b5b61137384828561132a565b509392505050565b600082601f8301126113905761138f611263565b5b81356113a0848260208601611339565b91505092915050565b600073ffffffffffffffffffffffffffffffffffffffff82169050919050565b60006113d4826113a9565b9050919050565b6113e4816113c9565b81146113ef57600080fd5b50565b600081359050611401816113db565b92915050565b6114108161121b565b811461141b57600080fd5b50565b60008135905061142d81611407565b92915050565b60008060008060008060008060006101208a8c03121561145657611455611259565b5b60008a013567ffffffffffffffff8111156114745761147361125e565b5b6114808c828d0161137b565b99505060206114918c828d016113f2565b98505060408a013567ffffffffffffffff8111156114b2576114b161125e565b5b6114be8c828d0161137b565b97505060608a013567ffffffffffffffff8111156114df576114de61125e565b5b6114eb8c828d0161137b565b96505060806114fc8c828d0161141e565b95505060a061150d8c828d0161141e565b94505060c061151e8c828d0161141e565b93505060e08a013567ffffffffffffffff81111561153f5761153e61125e565b5b61154b8c828d0161137b565b9250506101008a013567ffffffffffffffff81111561156d5761156c61125e565b5b6115798c828d0161137b565b9150509295985092959850929598565b60006020828403121561159f5761159e611259565b5b60006115ad8482850161141e565b91505092915050565b600081519050919050565b600082825260208201905092915050565b6000819050602082019050919050565b6115eb816113c9565b82525050565b60006115fd83836115e2565b60208301905092915050565b6000602082019050919050565b6000611621826115b6565b61162b81856115c1565b9350611636836115d2565b8060005b8381101561166757815161164e88826115f1565b975061165983611609565b92505060018101905061163a565b5085935050505092915050565b600081519050919050565b600082825260208201905092915050565b6000819050602082019050919050565b6116a98161121b565b82525050565b60006116bb83836116a0565b60208301905092915050565b6000602082019050919050565b60006116df82611674565b6116e9818561167f565b93506116f483611690565b8060005b8381101561172557815161170c88826116af565b9750611717836116c7565b9250506001810190506116f8565b5085935050505092915050565b6000604082019050818103600083015261174c8185611616565b9050818103602083015261176081846116d4565b90509392505050565b600081519050919050565b600082825260208201905092915050565b60005b838110156117a3578082015181840152602081019050611788565b838111156117b2576000848401525b50505050565b60006117c382611769565b6117cd8185611774565b93506117dd818560208601611785565b6117e68161126d565b840191505092915050565b6117fa816113c9565b82525050565b600061014082019050818103600083015261181b818d6117b8565b905061182a602083018c6117f1565b818103604083015261183c818b6117b8565b90508181036060830152611850818a6117b8565b905061185f6080830189611225565b61186c60a0830188611225565b61187960c0830187611225565b61188660e0830186611225565b81810361010083015261189981856117b8565b90508181036101208301526118ae81846117b8565b90509b9a5050505050505050505050565b60006118ca826113a9565b9050919050565b6118da816118bf565b81146118e557600080fd5b50565b6000813590506118f7816118d1565b92915050565b6000806040838503121561191457611913611259565b5b6000611922858286016118e8565b92505060206119338582860161141e565b9150509250929050565b60006020828403121561195357611952611259565b5b600082013567ffffffffffffffff8111156119715761197061125e565b5b61197d8482850161137b565b91505092915050565b600081519050919050565b600082825260208201905092915050565b6000819050602082019050919050565b600082825260208201905092915050565b60006119ce82611769565b6119d881856119b2565b93506119e8818560208601611785565b6119f18161126d565b840191505092915050565b600082825260208201905092915050565b6000611a18826115b6565b611a2281856119fc565b9350611a2d836115d2565b8060005b83811015611a5e578151611a4588826115f1565b9750611a5083611609565b925050600181019050611a31565b5085935050505092915050565b600082825260208201905092915050565b6000611a8782611674565b611a918185611a6b565b9350611a9c83611690565b8060005b83811015611acd578151611ab488826116af565b9750611abf836116c7565b925050600181019050611aa0565b5085935050505092915050565b60006101a0830160008301518482036000860152611af882826119c3565b9150506020830151611b0d60208601826115e2565b5060408301518482036040860152611b2582826119c3565b91505060608301518482036060860152611b3f82826119c3565b9150506080830151611b5460808601826116a0565b5060a0830151611b6760a08601826116a0565b5060c0830151611b7a60c08601826116a0565b5060e0830151611b8d60e08601826116a0565b50610100830151848203610100860152611ba782826119c3565b915050610120830151848203610120860152611bc382826119c3565b915050610140830151848203610140860152611bdf8282611a0d565b915050610160830151848203610160860152611bfb8282611a7c565b915050610180830151848203610180860152611c178282611a7c565b9150508091505092915050565b6000611c308383611ada565b905092915050565b6000602082019050919050565b6000611c5082611986565b611c5a8185611991565b935083602082028501611c6c856119a2565b8060005b85811015611ca85784840389528151611c898582611c24565b9450611c9483611c38565b925060208a01995050600181019050611c70565b50829750879550505050505092915050565b60006020820190508181036000830152611cd48184611c45565b905092915050565b600060208284031215611cf257611cf1611259565b5b6000611d00848285016113f2565b91505092915050565b7f54686520646561646c696e652073686f756c642062652061206461746520696e60008201527f20746865206675747572652e0000000000000000000000000000000000000000602082015250565b6000611d65602c83611774565b9150611d7082611d09565b604082019050919050565b60006020820190508181036000830152611d9481611d58565b9050919050565b7f4e487b7100000000000000000000000000000000000000000000000000000000600052601160045260246000fd5b6000611dd58261121b565b91507fffffffffffffffffffffffffffffffffffffffffffffffffffffffffffffffff8203611e0757611e06611d9b565b5b600182019050919050565b6000611e1d8261121b565b9150611e288361121b565b925082821015611e3b57611e3a611d9b565b5b828203905092915050565b7f4e487b7100000000000000000000000000000000000000000000000000000000600052602260045260246000fd5b60006002820490506001821680611e8d57607f821691505b602082108103611ea057611e9f611e46565b5b50919050565b7f496e76616c696420726563697069656e74206164647265737300000000000000600082015250565b6000611edc601983611774565b9150611ee782611ea6565b602082019050919050565b60006020820190508181036000830152611f0b81611ecf565b9050919050565b7f496e73756666696369656e742062616c616e6365000000000000000000000000600082015250565b6000611f48601483611774565b9150611f5382611f12565b602082019050919050565b60006020820190508181036000830152611f7781611f3b565b9050919050565b600081905092915050565b50565b6000611f99600083611f7e565b9150611fa482611f89565b600082019050919050565b6000611fba82611f8c565b9150819050919050565b7f5472616e73666572206661696c65640000000000000000000000000000000000600082015250565b6000611ffa600f83611774565b915061200582611fc4565b602082019050919050565b6000602082019050818103600083015261202981611fed565b9050919050565b600061203b8261121b565b91506120468361121b565b9250827fffffffffffffffffffffffffffffffffffffffffffffffffffffffffffffffff0382111561207b5761207a611d9b565b5b828201905092915050565b600060208201905081810360008301526120a081846117b8565b905092915050565b7f4e487b7100000000000000000000000000000000000000000000000000000000600052603260045260246000fdfea26469706673582212202eff9bd11d4c3fc6ae35b4196cbc5aea1b4ef2d1021b0c458bca5180680c788d64736f6c634300080d0033",
  "immutableReferences": {},
  "source": "// SPDX-License-Identifier: MIT\n// Tells the Solidity compiler to compile only from v0.8.13 to v0.9.0\npragma solidity ^0.8.13;\n\nimport \"@openzeppelin/contracts/utils/math/SafeMath.sol\";\n\ncontract CrowdFunding {\n    struct Campaign {\n        string name;\n        address owner;\n        string title;\n        string description;\n        uint256 target;\n        uint256 startline;\n        uint256 deadline;\n        uint256 amountCollected;\n        string image;\n        string nft;\n        address[] donators;\n        uint256[] donations;\n        uint256[] withdrawls;\n    }\n\n    event LogMessage(string message);\n\n    function sendMessage(string memory message) public {\n        emit LogMessage(message);\n    }\n\n    mapping(uint256 => Campaign) public campaigns;\n\n    uint256 public numberOfCampaigns = 0;\n\n    function createCampaign(string memory _name,address _owner, string memory _title, \n    string memory _description, uint256 _target,uint256 _startline,\n    uint256 _deadline, string memory _image, string memory _nft) public returns (uint256) {\n        Campaign storage campaign = campaigns[numberOfCampaigns];\n\n        require(campaign.deadline < block.timestamp, \"The deadline should be a date in the future.\");\n\n        campaign.name = _name;\n        campaign.owner = _owner;\n        campaign.title = _title;\n        campaign.description = _description;\n        campaign.target = _target;\n        campaign.startline = _startline;\n        campaign.deadline = _deadline;\n        campaign.amountCollected = 0;\n        campaign.image = _image;\n        campaign.nft = _nft;\n\n        numberOfCampaigns++;\n\n        return numberOfCampaigns - 1;\n    }\n\n    function donateToCampaign(uint256 _id) public payable {\n        \n        uint256 amount = msg.value;\n\n        Campaign storage campaign = campaigns[_id];\n\n        campaign.donators.push(msg.sender);\n        campaign.donations.push(amount);\n\n        (bool sent,) = payable(campaign.owner).call{value: amount}(\"\");\n\n        if(sent) {\n            campaign.amountCollected = campaign.amountCollected + amount;\n        }\n    }\n\n    function withDrawAmount(address payable _recipient,uint256 _id) external payable {\n\n        uint256 _amount = msg.value;\n        require(_recipient != address(0), \"Invalid recipient address\");\n\n        // Check if the contract has enough balance to transfer\n        require(address(this).balance >= _amount, \"Insufficient balance\");\n        \n        // Transfer the amount to the recipient\n        (bool success, ) = _recipient.call{value: _amount}(\"\");\n        Campaign storage campaign = campaigns[_id];\n        campaign.amountCollected = campaign.amountCollected - _amount;\n        campaign.withdrawls.push(_amount);\n        require(success, \"Transfer failed\");\n    }\n\n    function getBalance(address _contractAddress) public view returns (uint256) {\n        return address(_contractAddress).balance;\n    }\n\n    function estimateGasFees() private view returns (uint256) {\n        uint256 gasStart = gasleft();\n        // Execute the transaction here...\n        uint256 gasUsed = gasStart - gasleft();\n        uint256 gasPrice = tx.gasprice;\n        uint256 gasFees = gasPrice * gasUsed;\n        return gasFees;\n    }\n\n    function getDonators(uint256 _id) view public returns (address[] memory, uint256[] memory) {\n        return (campaigns[_id].donators, campaigns[_id].donations);\n    }\n\n    function getCampaigns() public view returns (Campaign[] memory) {\n        Campaign[] memory allCampaigns = new Campaign[](numberOfCampaigns);\n\n        for(uint i = 0; i < numberOfCampaigns; i++) {\n            Campaign storage item = campaigns[i];\n\n            allCampaigns[i] = item;\n        }\n\n        return allCampaigns;\n    }\n}\n\nlibrary StringUtils {\n    function concat(string memory _a, uint256 _b) internal pure returns (string memory) {\n        return string(abi.encodePacked(_a, StringUtils.toString(_b)));\n    }\n\n    function toString(uint256 _i) internal pure returns (string memory) {\n        if (_i == 0) {\n            return \"0\";\n        }\n\n        uint256 j = _i;\n        uint256 length;\n\n        while (j != 0) {\n            length++;\n            j /= 10;\n        }\n\n        bytes memory bstr = new bytes(length);\n        uint256 k = length;\n\n        while (_i != 0) {\n            bstr[--k] = bytes1(uint8(48 + _i % 10));\n            _i /= 10;\n        }\n\n        return string(bstr);\n    }\n}",
  "sourcePath": "/Users/sahilpal/Desktop/SAHIL/WEB DEV/Hackathons/Dojima-Hackathon-Feb/crowdfunding-dapp/crowdfunding-contract/contracts/CrowdFunding.sol",
  "compiler": {
    "name": "solc",
    "version": "0.8.13+commit.abaa5c0e.Emscripten.clang"
  },
  "schemaVersion": "3.4.10",
  "updatedAt": "2023-02-28T06:34:20.916Z",
  "networkType": "ethereum",
  "devdoc": {
    "kind": "dev",
    "methods": {},
    "version": 1
  },
  "userdoc": {
    "kind": "user",
    "methods": {},
    "version": 1
  }
}